:020000040800F2
:1000000088070020010100080F270008B12200081E
:100010000D270008ED060008E92E0008000000008A
:10002000000000000000000000000000F52A0008A9
:10003000FD06000800000000D52A0008F72A000885
:100040001B010008D12A00081B0100081B01000841
:100050001B0100081B010008FF0600081B01000827
:100060001B0100081B01000805070008F106000835
:100070001B0100081B0100081B0100081B010008F0
:100080001B0100081B010008310500081B010008C6
:100090001B0100081B0100081B0100081B010008D0
:1000A000A52B00081B0100081B0100081B0100080C
:1000B0001B0100081B0100081B0100081B010008B0
:1000C0001B0100081B0100081B010008D92A0008B9
:1000D0001B0100081B0100081B0100081B01000890
:1000E0001B0100081B0100081B010008DFF80CD0F1
:1000F00000F05CF900480047292F0008880700201D
:100100000648804706480047FEE7FEE7FEE7FEE7B1
:10011000FEE7FEE7FEE7FEE7FEE7FEE75D2B0008F1
:10012000ED000008D2B201E000F8012B491EFBD21D
:1001300070470022F6E710B513460A4604461946F2
:10014000FFF7F0FF204610BDF0B480EA0102D40FA3
:100150004200B2EB410F02D20246084611464A0065
:1001600042D0C30DDDB2C1F3C752AD1A202D35DA2E
:10017000C1F3160141F4000204B15242C5F1200658
:1001800002FA06F12A411044B3EBD05F23D0C4B188
:10019000012DA0EBC35009DCF0BC4FF0004202EA95
:1001A000C352DBB200F5000000F0D2B8400000F10D
:1001B000807000EBC350A0F1807040EAD17049001C
:1001C00009E0490841EAC071A0EBC35000F5000006
:1001D000400800EBC350F0BC00F0B1B8614201220E
:1001E00002EB4101001BF6E7F0BC704781F00041D3
:1001F000AAE780F00040A7E780EA010210B502F00C
:100200000043400022D04A001FD0010E01EB1261D2
:10021000C0F35600C2F3560240F4000042F400025C
:10022000A0FB022000047F39140400D0401C50EAD7
:10023000124001D44000491EC2B20C0604EBD0109B
:10024000401C4008802A02D003E0002010BD20F0AE
:100250000100002900DA0020184310BD30B480EA04
:10026000010202F0004530F0004221F0004013D0BE
:1002700090B1C30DD40DC2F31601C0F31600E41AF9
:1002800041F4000140F400027D34914201D3641C2A
:1002900000E04900002C02DA30BC002070474FF427
:1002A00000000023914201D3891A034340084FEA1A
:1002B0004101F7D151B1914202D14FF0004105E027
:1002C00002D24FF0010101E06FF0010103EBC450D5
:1002D000284430BC00F033B8420005D0C0F3C75208
:1002E0005242914201DC0020704700EBC150704740
:1002F000C10F80EAE0700844CA079623002100F08D
:1003000027B896230022114600F022B800F00042E0
:1003100020F00040C10DC0F3160040F400007F291A
:1003200001DA00207047962903DCC1F19601C8402C
:1003300001E096398840002AF4D0404270470029F5
:10034000A8BF7047401C490008BF20F0010070475B
:1003500010B4B0FA80FC00FA0CF050EA010404BFBB
:1003600010BC704749B1CCF1200421FA04F411FA11
:100370000CF118BF012121430843A3EB0C01CB1D55
:100380004FEA00614FEA102042BF002010BC7047C6
:1003900000EBC35010440029A4BF10BC7047401CA0
:1003A000490008BF20F0010010BC7047064C074D03
:1003B00006E0E06840F0010394E807009847103435
:1003C000AC42F6D3FFF796FEDC330008FC3300089E
:1003D00000F5005142F6D87C0AB2C0F6000C002AA3
:1003E000B8BFA0F5C04108B24FF4FC42800902EA50
:1003F00041213CF91030C1F500420CEB4000B0F94E
:1004000002005A430023C7F6FF731A4000FB012085
:100410006FF0010101EAD03000B2704742F6D87C9B
:1004200081094FF4FC42C0F6000C02EA40203CF97E
:100430001130C0F500420CEB4101B1F902105A43F2
:100440000023C7F6FF731A4001FB00206FF0010183
:1004500001EAD03000B2704770B50C46012861DB6C
:10046000B0FA80F161F00102561800FA06F528464C
:10047000FFF73EFF4FF04051FFF7BEFE45F6DF119C
:10048000C5F63771A1EB60004FF09D41FFF7B4FE58
:10049000FFF73CFF80FB0012520042EAD1716A1064
:1004A00081FB0213C90F41EA4301C1F1405181FBB5
:1004B0000001400F40EAC10020F0030080FB001360
:1004C0005B0043EAD17181FB0213C90F41EA43018A
:1004D000C1F1405181FB0001400F40EAC10020F012
:1004E000030080FB00135B0043EAD17181FB021221
:1004F000C90F41EA4201C1F1405181FB0001400FA7
:1005000040EAC10020F0030080FB0501800F40EAB3
:10051000810006EBD67120F00100491040FA01F18C
:10052000002001E0FF20002140B2216070BD0000EA
:100530002DE9F04132480068324C334DA060E0684C
:10054000401CE060A88880B2FFF7DBFE2F49FFF770
:1005500085FE206229682069A0EB11406062626913
:1005600089B2521AA262E16A00EB8100052190FB78
:10057000F1F0E062236B02EB830292FBF1F525635D
:10058000FFF7B6FE224E3146FFF768FEA06128460F
:10059000FFF7AEFE3146FFF761FEE0611D4800F057
:1005A000E4F91D4800F0E1F93007406A06B2268000
:1005B000B4F90200301AFFF79BFE18490546606344
:1005C000884212DA164885420FD21649A06BFFF70F
:1005D00013FE074614492846FFF70EFE3946FFF77B
:1005E000B3FD1249FFF73AFEA0636680E068022877
:1005F00003DB02F08DF80020E060BDE8F081000030
:100600000024014080000020CC0000200000C441F4
:10061000B47EA542F00000202001002000007042BE
:10062000000070C2000048420000964200004C42A8
:1006300070B5044600688168C943C9071CD1816848
:1006400021F00101816000F03BFD05460FE000BF95
:1006500000F036FD401B022809D9A06A40F01000C6
:10066000A062E06A40F00100E062012070BD2068F5
:100670008068C043C007EBD0002070BDF8B50026ED
:100680000446009600688168C943C90728D081687C
:1006900041F001018160134813490068B0FBF1F09B
:1006A00000E0401E00900028FBD100F009FD054647
:1006B00011E000BF00F004FD401B02280BD9A06A26
:1006C00040F01000A062E06A40F00100E06284F8AF
:1006D00024600120F8BD20688068C043C007E9D1CC
:1006E0000020F8BDC800002040420F00FEE70000D7
:1006F000014800F0F7BA000078020020704701209E
:1007000000F0DCBB094900224868401C48606328AF
:1007100000DD4A600648074B4968008823F811004D
:100720004FF080404262102000F0C8BB80000020E3
:1007300002000020BC02002070470000F8B5002530
:100740000446009590F82400012808D0012084F880
:1007500024002046FFF76CFF060002D04BE0022089
:10076000F8BDA06A20F4885040F00200A062022088
:1007700000F06CFD22490968B1FBF0F0400000E098
:10078000401E00900028FBD12046FFF777FF20682D
:10079000816841F00801816000F092FC074604E0A6
:1007A00000F08EFCC01B0A2811D820688068000762
:1007B000F6D42068816841F00401816000F080FC7B
:1007C00007460EE000F07CFCC01B0A2809D9A06A8D
:1007D00020F0020040F01000A06284F824500120B4
:1007E000F8BD206880684007ECD4A06A20F00200C1
:1007F00040F00100A06284F824503046F8BD0000AB
:10080000C80000207047000010B590F82420002395
:100810008CB0012A18D0012280F82420114A0092BD
:1008200002689468E443E40711D0009CA468E443A0
:10083000E4070CD00C4CA24209D15468096824F496
:1008400070240C43546007E002200CB010BD816A94
:1008500041F0200181620123002180F82410184614
:10086000F3E700000028014000240140F8B500240F
:10087000009490F824202546012A12D0012280F805
:1008800024204A681F23072A0DD20668776B521E60
:1008900002EB820293409F430B6893401F437763B0
:1008A00019E00220F8BD06680D2A0AD2376BD21F64
:1008B00002EB820293409F430B6893401F433763D0
:1008C00009E0F76A0D3A02EB820293409F430B68FE
:1008D00093401F43F7620A68072306680A2A0AD36F
:1008E000F7680A3A02EB420293409F438B689340B9
:1008F0001F43F76008E0376902EB420293409F43D1
:100900008B6893401F4337610A68102A01D0112A6F
:1009100020D1124B02689A4217D193681B0219D456
:10092000936843F4000393600968102912D10C49BD
:100930000C4A0968B1FBF2F101EB8101490000E0CA
:10094000491E00910029FBD104E0816A41F0200199
:100950008162012480F824502046F8BD0024014023
:10096000C800002040420F00704710B504460068E0
:100970004168890626D50168890723D5A16AC90679
:1009800003D4A16A41F40071A1628168C1F34241BC
:10099000072910D1217B71B9416821F02001416004
:1009A000A06A20F48070A062A06AC00403D4A06A88
:1009B00040F00100A0622046FFF7D6FF21686FF0EB
:1009C000120008602068416809062ED501684907B1
:1009D0002BD5A16AC90603D4A16A41F40051A162D2
:1009E0008168C1F30231072909D04168490515D44E
:1009F0008168C1F34241072910D1217B71B9416857
:100A000021F080014160A06A20F48050A062A06AB9
:100A1000C00503D4A06A40F00100A0622046FFF7A1
:100A2000F1FE21686FF00C000860206841684906FB
:100A30000DD50068C0070AD0A06A40F48030A062DB
:100A4000204600F093F821686FF00100086010BDA7
:100A50002DE9F0414FF0000704003D467ED0A06A2A
:100A6000002628B9E66284F82460204600F080F869
:100A70002046FFF7DDFDA16AC90600D420B1A06AB7
:100A800040F01000A06269E0A16A21F4885141F0B1
:100A90000201A1626268E169237B0A4347EA4301DC
:100AA0000A43A1684FF48077B94209D0012907D0E1
:100AB0005FF0000194F814C0BCF1010F02D00AE00D
:100AC0003946F7E7F3B1A36A43F02003A362E36A70
:100AD00043F00103E3622368D3F804C02CF4694CAB
:100AE0004CEA010CC3F804C021688B68DFF870C0C1
:100AF00003EA0C0313438B60A168B9420BD00129B0
:100B000009D00CE0DFF85CC0A3690CEB43330B4366
:100B100043F40061DFE7218A0D05A5F58015216802
:100B2000CB6A23F470032B43CB62216889680E4B98
:100B30001940914208D1E662A16A21F0020141F018
:100B40000101A162BDE8F081A06A20F0020040F03E
:100B50001000A062E06A40F00100E0620120F1E7CD
:100B6000FDF7E1FF00E0FFFFFE0E1FFF70470000F2
:100B700070B586B00025009501950295039506464F
:100B80002C4C02682C4903202C4BA2422DD18A699F
:100B900042F400728A618A6902F4007204928A69DE
:100BA00042F004028A61896901F00401049105217F
:100BB000CDE900106946184600F08CF9214C204818
:100BC000C4E900058020C4E9025080002061800053
:100BD00060612020C4E90605204600F02DF908B127
:100BE000FFF7AAFD3462666219E0174CA2421ED1DB
:100BF0008A6942F480628A618A6902F4806204929E
:100C00008A6942F004028A61896901F00401049151
:100C10000A21CDE900106946184600F05BF9002270
:100C20001146122000F0D0FA122000F0C0FA06B0EF
:100C300070BD000000240140001002400008014087
:100C400008000240780200200028014010B590F80A
:100C500021100024022903D00421816301243DE0F6
:100C600001680A6822F00E020A6001680A6822F030
:100C700001020A601A4A0168914201D1012121E072
:100C8000174A1432914201D110211BE0144A283234
:100C9000914201D1891515E0114A3C32914201D1AE
:100CA00089140FE00E4A5032914202D14FF4803144
:100CB00008E00B4A6432914202D14FF4801101E006
:100CC0004FF08071064A083A5160012180F82110E6
:100CD000002180F82010416B01B18847204610BDEB
:100CE000080002402DE9F05FC16B0C6801680B68D9
:100CF000D0F840C0042202FA0CF2494DDFF824A1DA
:100D0000494E4A4FDFF828B1DFF828E122422CD0C3
:100D10005A072AD50A68920603D40A6822F0040208
:100D20000A600168A94201D1042219E0514501D1AC
:100D3000402215E0B14202D14FF4806210E0B94286
:100D400002D14FF480420BE0594502D14FF480228A
:100D500006E0714502D14FF4800201E04FF080625D
:100D60002F4908394A60C16A3BE04FF0020808FA8F
:100D70000CF818EA040F4FF000094FF0010235D0CB
:100D80005FEA837832D50B689B0605D40B6823F0A5
:100D90000A030B6080F821200168A94201D10222D8
:100DA00019E0514501D1202215E0B14202D14FF4A2
:100DB000007210E0B94202D14FF400520BE05945E5
:100DC00002D14FF4003206E0714502D14FF4001217
:100DD00001E04FF00072124908394A6080F8209013
:100DE000816A00291AD0BDE8F05F0847082505FA96
:100DF0000CF5254212D01B0710D50B6823F00E030B
:100E00000B6090F84010C36B02FA01F159608263E5
:100E100080F8212080F82090016BE2E7BDE8F09F88
:100E2000080002401C000240300002404400024022
:100E3000580002406C00024030B528B308C813497E
:100E400014221944B1FBF2F18900C1631049816396
:100E5000022141771A6843F6F0718A43D0E9001401
:100E60002143D0E902452C432143046921434469CD
:100E70002143846921431143196000214163012208
:100E800042770177084630BD012030BDF8FFFDBF35
:100E90000000024070B5044600F012F90546601CDF
:100EA00002D004480078044400F00AF9401BA04234
:100EB000FAD370BDBC00002070470000044910B593
:100EC0000A68024202D00860FFF7F6FF10BD00007A
:100ED000140401402DE9F84FDFF8B891002409F11E
:100EE000040A0AF1040B23460F270BF1040EC9E094
:100EF0000125A5402A40AA427DD1674ED1F804C001
:100F0000ACEB0608B44532D014DCBCF1030F3AD088
:100F100009DCBCF1000F2AD0BCF1010F1CD0BCF1E0
:100F2000020F31D11DE0BCF1110F17D0BCF1120F2F
:100F30002AD119E0B8F5881F19D006DCB8F5803F32
:100F400015D0B8F5801F1FD111E0B8F5001F0ED0E5
:100F5000B8F5041F18D10AE0CB6815E0CB681B1D5B
:100F600012E0CB6808330FE0CB680C330CE08B68E1
:100F70002BB1012B4FF0080303D0456104E004239B
:100F800002E0056100E00023FF2A01D8064601E0E7
:100F900000F104064FEA840501D9A5F12005D6F831
:100FA000008007FA05FC28EA0C0803FA05F548EA70
:100FB0000508C6F800804D68ED0062D5374DAE6972
:100FC00046F00106AE61AD6924F0030605F00105A7
:100FD0000095334D06EB050CDCF80850A607360FDC
:100FE00007FA06F825EA0805DFF8B880404503D17E
:100FF0004FF0000817E044E0DFF8AC80404502D134
:101000004FF001080FE0DFF8A480404502D14FF017
:10101000020808E0DFF89880404502D14FF003084D
:1010200001E04FF0040808FA06F848EA0508CCF891
:1010300008804D68D9F80060ED034D4601D5164390
:1010400000E096432E604D68DAF80060AD03554627
:1010500001D5164300E096432E604D68DBF8006032
:10106000ED025D4601D5164300E096432E604D68C3
:10107000DEF80060AD02754601D5164300E09643E8
:101080002E60641C0D682A46E5407FF431AFBDE850
:10109000F88F000000040140000011100010024011
:1010A0000000014000080140000C01400010014018
:1010B000001401400AB1016170470904FBE7000018
:1010C0000148806870470000BC0000200248816829
:1010D0000278114481607047BC000020074810B5B9
:1010E000016841F010010160032000F08DF800203C
:1010F00000F006F800F024F8002010BD00200240A7
:1011000070B50D4D04464FF47A712878B1FBF0F0BC
:101110000A490968B1FBF0F000F0FAFC48B9102C5C
:1011200007D200222146501E00F04EF800206C60CD
:1011300070BD012070BD0000BC000020C800002070
:10114000104808B5816941F001018161816901F0B0
:1011500001010091C16941F08051C161C069002263
:1011600000F0805000901146012000F02DF8012081
:1011700000F01DF80448416821F0E06141F0007181
:10118000416008BD001002400000014000280DDB56
:1011900000F01F02012191404009800000F1E02091
:1011A000C0F88011BFF34F8FBFF36F8F70470028D7
:1011B00009DB00F01F02012191404009800000F18D
:1011C000E020C0F800117047F0B40E4B1B680C46CD
:1011D000C3F30223C3F10705042D00D90425191D0B
:1011E000072901D2002300E0DB1E012606FA05F1E3
:1011F000491E214099409E40761E16403143F0BC66
:1012000001F073BE0CED00E0064900F0070208682B
:101210004FF6FF03184040EA0220034A10430860DB
:10122000704700000CED00E00000FA057047000078
:1012300010B5054C2068C00304D5FFF7F7FF4FF445
:101240008030206010BD00001404014010B529A4B6
:1012500001461DCC86B08DE81D002AA02A4C0068EE
:1012600004900020012923D002293AD010291DD151
:1012700061682268D20119D5C1F38342C9031DF800
:10128000020009D5616804AAC1F34041515C1F4ABC
:10129000B2FBF1F1484301E01D494843616849024E
:1012A00004D440005FF00301B0FBF1F006B010BDC4
:1012B000226AC2F30121012903D1920701D5C80393
:1012C000F4E7022905D1626A920702D549F6404047
:1012D000ECE70329EAD121688903E7D54FF22440DE
:1012E000E4E700F033F96168C1F38131491C49003A
:1012F000DAE7000002030405060708090A0B0C0DD3
:101300000E0F1010010200000010024000127A00BF
:1013100000093D002DE9F84305460078354CC0072B
:1013200054D0E0690026C00008D4E06940F0805045
:10133000E061E069012600F0805000902E480168CD
:10134000C90512D40168804641F480710160FFF73D
:10135000B7FE074605E000BFFFF7B2FEC01B6428DA
:1013600023D8D8F80000C005F6D5206A10F44070E4
:1013700021D0A98801F4407181421CD0206A1F4904
:10138000012220F440700A6000220A602062C00737
:1013900011D0FFF795FE074641F2883808E000BFFC
:1013A000FFF78EFEC11B414502D90320BDE8F8833B
:1013B000206A8007F4D5206A696820F440700843E9
:1013C00020621EB1E06920F08050E061287880073B
:1013D00005D56068A96820F440400843606028781B
:1013E000C00605D56068E96820F4800008436060A5
:1013F0000020DBE700100240007000404004424241
:101400002DE9F0470F46050061D0434E306800F0EB
:101410000700B84209D2306820F007003843306036
:10142000306800F00700B84251D128683B4C810772
:1014300012D5400703D5606840F4E060606028780A
:10144000000703D5606840F4605060606068A96878
:1014500020F0F000084360602878C00728D0686852
:10146000012810D02168022810D0890700292EDA1F
:10147000616821F0030101436160FFF721FE8046AE
:1014800041F288390DE021688903EFE78901EDE732
:10149000FFF716FEA0EB0801494502D90320BDE87D
:1014A000F0876068696800F00C00B0EB810FEFD145
:1014B000306800F00700B8420BD9306820F0070010
:1014C00038433060306800F00700B84201D0012096
:1014D000E5E72878400705D56068E96820F4E06012
:1014E000084360602878000706D56068296920F401
:1014F000605040EAC100606000F038F86168084A56
:10150000C1F30311515CC8400649086006480068F1
:10151000FFF7F6FD0020C2E7002002400010024065
:10152000C02F0008C8000020C00000200448054962
:1015300000684968044AC1F30221515CC840704701
:10154000C800002000100240D02F000804480549C0
:1015500000684968044AC1F3C221515CC840704721
:10156000C800002000100240D02F000812A185B052
:101570000FC98DE80F0014A0144A00680490516848
:10158000134801F00C03042B10D0082B0ED1C1F32B
:101590008343C9031DF803000AD5516804AAC1F3A7
:1015A0004041515C0A4A5043B0FBF1F005B070472E
:1015B00008494843FAE70000020304050607080942
:1015C0000A0B0C0D0E0F101001020000001002405B
:1015D00000127A0000093D002DE9F84F040070D098
:1015E0002078C04DC00749D06868C0F38100012849
:1015F00007D06868C0F38100022809D16868C00379
:1016000006D52868800339D560680028E7D035E022
:101610006068B0F5803F0BD010B1B0F5A02F11D0AD
:10162000286820F480302860286820F4802002E0B8
:10163000286840F480302860606890B1FFF740FD72
:1016400006460AE0286840F480202860F0E700BFE2
:10165000FFF736FD801B642873D828688003F7D510
:101660000CE0FFF72DFD064605E000BFFFF728FD63
:10167000801B6428F0D828688003F7D420789A4E1D
:1016800080074FF001094FF0000839D5686810F065
:101690000C0F07D06868C0F38100022809D1686880
:1016A000C00306D42868800714D52069012808D112
:1016B00010E02069B0B1C6F80090FFF701FD0746C1
:1016C00005E00AE1FFF7FCFCC01B0228C4D828682B
:1016D0008007F7D52868616920F0F80040EAC1006A
:1016E00028600DE0C6F80080FFF7EAFC074604E03A
:1016F000FFF7E6FCC01B022823D828688007F7D430
:10170000207800072CD57948A169D9B1C0F800909C
:10171000FFF7D6FC074604E0FFF7D2FCC01B022807
:101720000FD8686A8007F7D571484FF4FA510068FE
:10173000B0FBF1F0009000BF0098411E0091FAD27A
:101740000EE080E0C0F80080FFF7BAFC074604E036
:10175000FFF7B6FCC01B022875D8686A8007F7D46B
:101760002078400760D5E8690027C00008D4E86900
:1017700040F08050E861E869012700F08050009057
:101780005C480168C90513D40168834641F480713F
:101790000160FFF795FC824606E000BFFFF790FC72
:1017A000A0EB0A0064284ED8DBF80000C005F5D590
:1017B000E06801280AD008B1052813D0286A20F073
:1017C00001002862286A20F0040002E0286A40F044
:1017D00001002862E06841F2883B98B1FFF770FC95
:1017E00082460BE0286A40F004002862EEE700BF62
:1017F000FFF766FCA0EB0A0159455AD8286A800712
:10180000F6D50CE0FFF75CFC824605E0FFF758FCDC
:10181000A0EB0A0159454CD8286A8007F6D41FB1BD
:10182000E86920F08050E861E06988B36968C1F335
:101830008101022944D00228C6F8608004D0FFF755
:101840003FFC044638E034E0FFF73AFC074604E08A
:10185000FFF736FCC01B02282BD828688001F7D47C
:10186000206AB0F5803F05D16868A16820F4003097
:1018700008436860D4E908010843696821F47411D9
:1018800008436860C6F86090FFF71AFC044606E05B
:1018900025E000BFFFF714FC001B022809D82868C8
:1018A0008001F7D51BE000BFFFF70AFC001B0228F0
:1018B00002D90320BDE8F88F28688001F4D40EE037
:1018C0000128F7D06868226A00F48031914204D17F
:1018D000616A00F47010884201D00120EAE700201C
:1018E000E8E700000010024000004242800442424B
:1018F000C8000020007000407047000038B5044662
:10190000006842688168C9434B0606D5CB0704D1FD
:10191000D3435B0601D4216C05E08B0708D4D34385
:101920001B0605D4616C01B02046BDE83040084775
:101930008B0601D54B0646D4D3439B0643D44B06B6
:101940000AD494F85130032B3ED0636D43F0040366
:101950006365C36883680093890609D4616D41F0AB
:101960000101616581680091016821F04001016019
:10197000606D002827D02068416821F0E0014160B7
:10198000012084F85100900722D02068416821F09E
:1019900003014160104DE06C40B14563E06CFFF71E
:1019A00055F918B1606D40F040006065A06C0028EA
:1019B00009D04563A06CFFF749F9002803D0606D9A
:1019C00040F04000606538BDC1688068009038BD57
:1019D0002046FFF791FF38BDE52A000870B50400E6
:1019E00009D0606A002540B125616561A56294F85F
:1019F000510040B10CE0012070BD6068B0F5827FFD
:101A0000F4D0E561F2E784F85050204600F040F849
:101A1000022084F851002068016821F04001016033
:101A2000A088218900F4827001F404410843A1894F
:101A300001F400610843217C01F002010843217D8B
:101A400001F001010843218B01F400710843217F5B
:101A500001F03801084394F8201001F08001084398
:101A6000218D01F40051084321680860A069042118
:101A700001EA1040216848602068C16921F40061D2
:101A8000C1616565012084F85100002070BD00002F
:101A900030B585B00024009401940294039400684A
:101AA000184988422CD11848816941F480518161DC
:101AB000816901F480510491816941F004018161DF
:101AC0008069124D00F004000490A02000900220D4
:101AD00001900320039069462846FFF7FBF9402058
:101AE000CDE900040120029069462846FFF7F2F98B
:101AF000002211462320FFF767FB2320FFF757FB47
:101B000005B030BD00300140001002400008014027
:101B100010B5401EB0F1807F01D3012010BD4FF001
:101B2000E02460610F21601701F0DFF90020A0615F
:101B300007202061002010BD7047704710B590F855
:101B40003C20012A22D0012280F83C20CA688C68FF
:101B500022F4407222434C6822F4806222430C68D3
:101B600022F4006222430C6922F4805222434C6921
:101B700022F400522243C969002322F480420A431E
:101B800001684A6480F83C30002010BD022010BD7E
:101B900070B590F83C20012A26D0012480F83C4002
:101BA000022280F83D2003685A689D6822F0700682
:101BB0000A6832435A600D4B02689A4208D0B2F16B
:101BC000804F05D00A4B9A4202D00A4B9A4204D168
:101BD000496825F080031943916080F83D40002159
:101BE00080F83C10084670BD022070BD002C0140FA
:101BF000000400400008004010B5040003D094F831
:101C00003D0010B107E0012010BD002084F83C0029
:101C1000204600F01FF8022084F83D00211D2068B6
:101C200000F0D4FF012084F8460084F83E0084F8D8
:101C30003F0084F8400084F8410084F8420084F8B2
:101C4000430084F8440084F8450084F83D000020F7
:101C500010BD000000B585B00021009101910291F6
:101C600003910068124988421FD11248816941F4EA
:101C700000618161816901F400610491816941F031
:101C8000080181618069694600F0080004904FF402
:101C9000805000900848FFF71DF9002211461820D7
:101CA000FFF792FA1820FFF782FA05B000BD000096
:101CB000002C014000100240000C014070B50446A9
:101CC00090F83C00012817D0012584F83C500220F0
:101CD00084F83D002068826822F0770222F47F4277
:101CE00082600868502830D00DDC20284DD005DCFB
:101CF00098B310283BD148E0022070BD302844D072
:101D0000402834D139E0602828D0702806D0B0F5BA
:101D1000805F2CD0B0F5005F29D10AE0CB68D1E913
:101D20000121206800F088FF2068816841F0770178
:101D300009E0CB68D1E90121206800F07DFF20682F
:101D4000816841F48041816011E0CA684968206877
:101D500001F026F85021206807E016E0CA684968BB
:101D6000206801F02EF86021206800F06FFF84F8F1
:101D70003D50002084F83C0070BDCA684968206866
:101D800001F00EF840212068EFE722680146104676
:101D9000EBE72DE9F0410D46040003D094F83D0037
:101DA00018B108E00120BDE8F081002084F83C0073
:101DB000204600F041F8022084F83D002068816848
:101DC00044F2070291438160211D206800F0FEFE6D
:101DD000226890689169166A2B68AF69034340F2E4
:101DE0000330814341EA0721A868EF6908434FF6B1
:101DF000FC418843E96840EA0720014328692F6ACB
:101E0000000140EA0730084369686D6926F0220640
:101E100046EA0515294393602268906154F8460B01
:101E20000162012004F81F09E0752076E076207732
:101E3000A0750020B7E7000030B585B000250095FB
:101E40000195029503950068B0F1804F32D11A4890
:101E5000C16941F00101C161C16901F00101049151
:101E6000816941F004018161816901F004010491FB
:101E7000816941F0080181618069012400F0080056
:101E800004904FF400400090694602940B48FFF71D
:101E900021F80820CDE90005694602940848FFF7BB
:101EA00019F80848416821F4407141F0E06141F4BB
:101EB0008071416005B030BD001002400008014053
:101EC000000C014000000140704770B504460068F6
:101ED00001694FF00005C943890715D4C168C9439A
:101EE000890711D4E91E01610120207720688069EB
:101EF0008007204602D0FFF7E7FF04E000F0D2F8A9
:101F0000204600F061F9257720680169C943490737
:101F100017D4C168C943490713D46FF004010161A4
:101F2000022020772068806910F4407F204602D08C
:101F3000FFF7CAFF04E000F0B5F8204600F044F9CE
:101F4000257720680169C943090716D4C168C943C8
:101F5000090712D46FF0080101610420207720687E
:101F6000C0698007204602D0FFF7AEFF04E000F012
:101F700099F8204600F028F9257720680169C943BF
:101F8000C90617D4C168C943C90613D46FF010013C
:101F90000161082020772068C06910F4407F204646
:101FA00002D0FFF791FF04E000F07CF8204600F03B
:101FB0000BF9257720680169C943C90708D1C168B1
:101FC000C943C90704D1891E0161204600F0FDF80C
:101FD00020680169C943090609D4C168C9430906D3
:101FE00005D46FF0800101612046FFF7A5FD206850
:101FF0000169C943490609D4C168C943490605D4E2
:102000006FF040010161204600F0E0F820680169AE
:10201000C94389060BD4C168C943890607D46FF048
:10202000200101612046BDE87040FFF786BD70BD0C
:1020300010B586B0002100910191029103910068D2
:102040001449884223D11448816941F00801816113
:10205000816901F008010491816941F00401816105
:102060008069022400F0040004904FF46040CDE940
:102070000004694609480394FEF72CFF4FF4E06022
:10208000CDE90004694606480394FEF723FF06B035
:1020900010BD0000002C014000100240000C014067
:1020A00000080140704770B5044690F83C000D46AA
:1020B00001280AD0012084F83C0042B1042A18D03B
:1020C000082A2AD00C2A4DD139E0022070BD2068A0
:1020D00000F0C4FD2068816941F008018161206839
:1020E000816921F004018161206881692A691143B5
:1020F00011E0206800F0DAFD2068816941F4006198
:1021000081612068816921F4806181612068816931
:102110002A6941EA0221816124E0206800F0F2FD91
:102120002068C16941F00801C1612068C16921F0DE
:102130000401C1612068C1692A69114311E0206866
:1021400000F00CFE2068C16941F40061C1612068A3
:10215000C16921F48061C1612068C1692A6941EACD
:102160000221C161002084F83C0070BD10B504005C
:1021700003D094F83D0010B107E0012010BD00200D
:1021800084F83C00204600F01EF8022084F83D0050
:10219000211D206800F01AFD012084F8460084F813
:1021A0003E0084F83F0084F8400084F8410084F841
:1021B000420084F8430084F8440084F8450084F821
:1021C0003D00002010BD704770477047704770B5E4
:1021D000040004D094F83900002510B106E0012075
:1021E00070BD84F83850204600F022F8242084F88E
:1021F00039002068C16821F40051C160204600F018
:1022000017FE2068016921F490410161206841694D
:1022100021F02A0141612068C16841F40051C16088
:10222000E563202084F8390084F83A00002070BD6E
:1022300030B585B0002400940194029403940068A2
:10224000174988422AD11748816941F48041816148
:10225000816901F480410491816941F00801816143
:102260008069114D00F00800049040200090022089
:1022700001900320039069462846FEF72BFE80203C
:10228000CDE90004694628460294FEF723FE07487C
:10229000416841F0E06141F00401416005B030BDAA
:1022A0000038014000100240000C014000000140D5
:1022B000FEE70000364810B50221C16035490161D2
:1022C00035494161816841F0010181603248243023
:1022D000FEF734FA30485430FEF730FA2D484838CB
:1022E000016841F0200101600022001D02602B49BD
:1022F0000A60036843F4807303600B6843F48073DF
:102300000B600468264B1C4304600868184308608F
:102310002448016840F2555319430160214814389C
:10232000016841F0800101601E482430016841F4D9
:10233000004101601B482038016841F00101016043
:102340009807426241F63F71C162016841F00101A4
:102350000160154940F2FD7040F6146308601349AE
:1023600040F2F37008601248302101700A491031C0
:102370000B6040F2E7334B6082620E48016841F027
:1023800040010160416841F04001416010BD000022
:10239000000002404C240140CC00002008280140ED
:1023A00001001000202C014090000020940000202B
:1023B0000000002000300140884201DB904204DA36
:1023C000814203DD914201DD0846704710467047A7
:1023D000884201DC904204DD814203DA914201DA55
:1023E00008467047104670477FB500241348039491
:1023F000009401941049029401608915816004736E
:102400000475C461022505614460FEF721FB2804C0
:10241000039003A90948FEF7F7F901200095CDE9DB
:10242000010469460548FEF721FA69460348CDE9EB
:102430000045FEF71BFA7FBD00240140F00000209C
:102440003EB500241148009401940F4902940160A4
:102450008915816004730475022505614FF46021BC
:102460004460C161FEF7F4FA01200090CDE9010457
:1024700069460648FEF7FAF90320CDE900056946EA
:102480000248FEF7F3F93EBD00280140200100207C
:102490002DE9F04385B00024424800940194029451
:1024A0000394816941F010018161816901F010019B
:1024B0000491816941F020018161816901F020016D
:1024C0000491816941F004018161816901F0040195
:1024D0000491816941F0080181618069324F00F007
:1024E00008004FF4C0450490002229463846FEF704
:1024F000E1FDDFF8B880002210214046FEF7DAFD4A
:10250000DFF8AC90002240F602014846FEF7D2FD0B
:102510000095022601250396CDE901546946384607
:10252000FEF7D8FC10200327CDE90005CDE90247CE
:1025300069464046FEF7CEFC112000901D48CDE9CB
:10254000010569464846FEF7C5FC03970096CDE9AC
:10255000015469464846FEF7BDFCE802CDE9000596
:10256000CDE9025669464846FEF7B4FC2020CDE985
:102570000004694648460294FEF7ACFC002211466E
:102580000620FEF721FE0620FEF711FE002211466E
:102590000A20FEF719FE0A20FEF709FE05B0BDE885
:1025A000F0830000001002400010014000080140CC
:1025B000000C0140000021100C480B494FF4007240
:1025C00001604FF48271416000218160C16001614E
:1025D000C0E905121822C0E90721416281620A217F
:1025E000C162FFF7FBB9000000300140500100203C
:1025F00030B595B000240F94109411941294139454
:102600001C2168461494FDF794FD202107A8FDF7CE
:1026100090FD26482449C0E90014202181604FF430
:102620006161C0E9031444618461FFF7E5FA4FF486
:1026300080550FA91D480F95FFF740FB1B48FFF77A
:1026400095FD4020CDE9130413A91848FFF7A0FA1F
:10265000602000904FF4E160019002200290082079
:10266000CDE9030405940022694610480694FFF75B
:102670001AFD042269460D48FFF715FD0822694638
:102680000A48FFF710FD079450200894CDE909404F
:10269000CDE90B5407A905480E94FFF74FFA0348FC
:1026A000FFF7C6FC15B030BD002C0140A80100208A
:1026B00010B58CB024216846FDF73BFD002412487C
:1026C00009944FF080410A94C0E900144FF6FF715D
:1026D000C0E90241046184610320CDE900040120C6
:1026E000CDE902040494CDE9054007946946064803
:1026F0000894FFF74EFB099409A903480A94FFF7D1
:1027000047FA0CB010BD0000F0010020FEE7704752
:102710002DE9F05F01225103E048FEF7CBFCE04CCD
:1027200042F21071DF4DD4F83090DF4F894572DDF1
:10273000207843286FD809F10109DFF870A345F626
:10274000C0528E064FF000080AF1040B46F2A810A2
:10275000C4F8309091454BDA8A1CD4491031914528
:102760000ADDD24A143A136840F255552B431360E0
:102770000A6842F400420A6043F2B062914529DDE2
:10278000CA4A243A136803F07F0313600A6842F4CC
:1027900080520A60C54928390A6842F080020A60FE
:1027A0002063C349E069884212DC256A8D420FDC50
:1027B000FDF7ACFD0146BF480268511A016028468A
:1027C000FDF7A4FDBC490A68101A0860422000E029
:1027D0004F20207040F6CA01CAF800104FF4E160A3
:1027E000CBF80000B14908310860C6F824804DE1FB
:1027F000814500DD20632A686069824207DC3B680E
:10280000834204DC4042824201DB834204DA2069D5
:10281000401C206103E015E14046C4F81080E268E6
:10282000904203DD4920207000F0DEFA706AC0EBB0
:10283000C03000EB8000B0FBF1F0C0F30E00A080D0
:10284000726A49F6FE735A43B2FBF1F1C1F30E010D
:102850006180FDF7E3FDE080B4F90400FDF7B8FD09
:10286000208106469549606AFDF7C6FC8046A0694E
:10287000FDF73EFD4146FDF767FC6FF00301FDF7F4
:102880002BFD6062296844F6E610484347F6FF7561
:1028900090FBF5F2E166386849F2CC33584390FB7F
:1028A000F5F013182367B4F9062006FB01F002FBCC
:1028B00003F790FBF5F097FBF5F707445E434A43B7
:1028C00096FBF5F092FBF5F1401AC4E91D7049F64C
:1028D000AF21484390FBF5F0E0623846FDF708FD74
:1028E000A16AFDF786FCFDF711FD754E6065A26DCE
:1028F00071684FF46173414391FBF5F10A44594209
:10290000A2659A4201DDA36502E08A4200DAA16570
:102910003268424392FBF5F0A26D1044E0659842A4
:1029200001DDE36502E0884200DAE1656549E06DBA
:1029300000FB10105A497C31FDF78EFDE06F4BF221
:10294000055190FBF1F040F2DC51E067884200DD78
:10295000E167A06FFDF7CCFC616AFDF74AFCFDF76B
:10296000D5FC20667168626E414391FBF5F10A4423
:102970006266E16F8A4201DD616603E04B429A4282
:1029800000DA63663268424392FBF5F2606E1044EF
:10299000A066884202DC4942884200DAA166E36D03
:1029A000A66EB4F90810B4F9062001FB03F002FB8F
:1029B00006F75A43714390FBF5F097FBF5F792FB4E
:1029C000F5F291FBF5F1C01B0A44C4E91B0246F67F
:1029D000D9635A4392FBF5F692FBF5F2414201EBC3
:1029E000D17306EB6301C2EB6302C4E90E126063AC
:1029F000FFF7E2FC034604F1340007C8FFF7E8FCE8
:102A0000184400EBD0704110E164606B401A206400
:102A1000A26B521A6264E36B591A4323A1642370B8
:102A2000236D834200DA206500F5E160CAF80000FA
:102A300002F5E162CBF800201C4801F5E1610830A5
:102A4000016023E0204EE0693146FDF7D5FB80466A
:102A50002868FDF74DFC4146FDF776FB1B4D2946E6
:102A6000FDF7FCFBE0613146206AFDF7C5FB064639
:102A70003868FDF73DFC3146FDF766FB2946FDF75A
:102A8000EDFB09F10109C4F830902062BDE8F05F68
:102A900000224FF400510148FEF70CBB001001402A
:102AA00000000020AC000020B0000020342C0140C9
:102AB0000000F041900000209400002000007041D0
:102AC000DC000020105522000000FA440020FA44E7
:102AD000FEF7AEBB704700000148FEF70FBF0000D5
:102AE0005001002010B5406A0021C187C186FEF761
:102AF00003FF10BD7047FEF7E9BA30B593B0282147
:102B00006846FDF716FB14210AA8FDF712FB002406
:102B100001200F9410941194010412948DE8130075
:102B200004904FF4E010CDE908100225079568469F
:102B3000FEF752FD0F20CDE90A056802CDE90C40F1
:102B400002210AA80E94FEF75BFCA80311900F95D2
:102B50000FA8FEF7DFFB13B030BD00000D48016881
:102B600041F00101016041680B4A11404160016878
:102B70000A4A11400160016821F480210160416826
:102B800021F4FE0141604FF41F0181600449C0033C
:102B900008607047001002400000FFF8FFFFF6FEDB
:102BA00008ED00E00648016821F400410160054994
:102BB000532008700448FFF788F900F015F9FEE784
:102BC000442C014000000020A8010020F0B502685C
:102BD000164B174C174D4FF08047984205D0B8421E
:102BE00003D0A04201D0A84203D122F070064A6867
:102BF0003243984205D0B84203D0A04201D0A84247
:102C000003D122F44074CA6822434C6922F0800246
:102C1000224302608A68C2620A688262984201D1D5
:102C20000969016301214161F0BD0000002C0140F0
:102C3000000400400008004010B5846842EA032206
:102C400024F47F440A432243826010BD826822F04C
:102C500070020A4342F007018160704730B5026A92
:102C600022F001020262026A4368846924F073055B
:102C70000C682C4322F002058A682A430A4DA842B8
:102C80000BD122F00805CA6823F440732A434D692A
:102C900022F004021D438B692B4343608461496821
:102CA0004163026230BD0000002C014030B5026A71
:102CB00022F010020262026A436884690D6824F4FB
:102CC000E64444EA05248D6822F0200242EA051217
:102CD0000B4DA8420ED1CD6822F0800242EA0512C7
:102CE0004D6923F4406343EA85038D6922F0400275
:102CF00043EA85034360846149688163026230BDB1
:102D0000002C014030B5026A22F480720262036A2C
:102D10004268C46923F4007324F073050C682C43E3
:102D20008D6843EA05230C4DA8420ED1CD6823F4EB
:102D3000006343EA05234D6922F4405242EA05123A
:102D40008D6923F4806342EA05124260C4614968D8
:102D5000C163036230BD0000002C014030B5026A3F
:102D600022F480520262046A4268C3690D6823F447
:102D7000E64343EA05238D6824F4005444EA05340D
:102D8000064DA84204D14D6922F4804242EA8512E0
:102D90004260C36149680164046230BD002C014097
:102DA00010B5036A046A24F001040462846924F003
:102DB000F00444EA021423F00A020A438461026226
:102DC00010BD10B5036A23F0100303628369046A1F
:102DD00023F4704343EA023224F0A00343EA0111D2
:102DE0008261016210BD0000104801684EF6AA22FF
:102DF000114001600D48203801684FF6FE72114005
:102E000001600A4C2434206820F4004020600B202C
:102E1000FEF7BCF91220FEF7B9F92520FEF7B6F946
:102E2000206820F400402060FAE70000202C0140D8
:102E300070B5044600680169E26821F4405111430D
:102E400001612169A0680843616908432168CA6873
:102E500041F20C639A430243CA6020684169A26947
:102E600021F44071114341611E492068884202D11A
:102E7000FEF76CFB01E0FEF759FB00EBC00101EB34
:102E80000012606864218000B2FBF0F3B3FBF1F341
:102E90006FF018067343B2FBF0F5B2FBF0F605EBEA
:102EA0008305322303EB0515B5FBF1F5B6FBF1F60F
:102EB00005F0F00505EB0615B2FBF0F6B2FBF0F0FD
:102EC000B0FBF1F06FF01802504306EB800003EB0B
:102ED0000010B0FBF1F0216800F00F00284488607A
:102EE00070BD000000380140FEE70907090E002808
:102EF00004DB00F1E02080F80014704700F00F00C0
:102F000000F1E02080F8141D704702E008C8121F8D
:102F100008C1002AFAD170477047002001E001C1C2
:102F2000121F002AFBD1704708B5FEF7D7F8FFF74C
:102F3000E4FDFFF7ADFA1D48416941F0010141612F
:102F40004069002200F00100009011460B20FEF7BE
:102F50003BF90B20FEF72BF9FFF746FAFFF770FA63
:102F6000FFF746FBFFF7A4FBFFF726FB11481049CC
:102F70000C2201604FF4E131416000218160C160A9
:102F8000C0E904128161C161FFF721F9FFF792F9ED
:102F90004FF4FA60FDF77EFF012291030648FEF729
:102FA00089F8064941200870FEE700000010024041
:102FB00000380140380200200010014000000020CD
:102FC00000000000000000000102030406070809D9
:102FD0000000000001020304000092012403B60473
:102FE0004806D9076B09FB0A8C0C1C0EAB0F3A1173
:102FF000C8125514E2156E17F918831A0C1C931D8C
:103000001A1F9F202422A7232825A8262728A42981
:103010001F2B992C112E872FFC306E32DF334E354B
:10302000BA3625388D39F33A573CB83D173F7440CE
:10303000CE4126437B44CD451D476A48B449FB4AEF
:10304000404C814DC04EFB4F345169529B53CA5482
:10305000F6551E5743586459825A9D5BB45CC85D4F
:10306000D75EE45FEC60F161F262EF63E964DE6514
:10307000D066BD67A7688C696E6A4B6B246CF96C6F
:10308000CA6D976E5F6F2370E3709E7155720873FF
:10309000B67360740575A6754276D9766C77FB7742
:1030A00085780A798A79067A7D7AEF7A5D7BC67BA4
:1030B0002A7C897CE47C3A7D8A7DD67D1E7E607E7A
:1030C0009D7ED67E0A7F387F627F877FA77FC27F03
:1030D000D97FEA7FF67FFE7FFF7FFE7FF67FEA7F64
:1030E000D97FC27FA77F877F627F387F0A7FD67EA6
:1030F0009D7E607E1E7ED67D8A7D3A7DE47C897CC5
:103100002A7CC67B5D7BEF7A7D7A067A8A790A799A
:103110008578FB776C77D9764276A67505756074ED
:10312000B673087355729E71E37023705F6F976E6C
:10313000CA6DF96C246C4B6B6E6A8C69A768BD67AD
:10314000D066DE65E964EF63F262F161EC60E45F32
:10315000D75EC85DB45C9D5B825A645943581E5764
:10316000F655CA549B5369523451FB4FC04E814DA2
:10317000404CFB4AB4496A481D47CD457B44264331
:10318000CE417440173FB83D573CF33A8D3925384E
:10319000BA364E35DF336E32FC30872F112E992C24
:1031A0001F2BA4292728A8262825A72324229F20CF
:1031B0001A1F931D0C1C831AF9186E17E21555146B
:1031C000C8123A11AB0F1C0E8C0CFB0A6B09D90705
:1031D0004806B6042403920100006EFEDCFC4AFBA4
:1031E000B8F927F895F605F574F3E4F155F0C6EE55
:1031F00038EDABEB1EEA92E807E77DE5F4E36DE21C
:10320000E6E061DFDCDD59DCD8DA58D9D9D75CD605
:10321000E1D467D3EFD179D004CF92CD21CCB2CA1B
:1032200046C9DBC773C60DC5A9C348C2E9C08CBF78
:1032300032BEDABC85BB33BAE3B896B74CB605B537
:10324000C0B37FB240B105B0CCAE97AD65AC36AB84
:103250000AAAE2A8BDA79CA67EA563A44CA338A297
:1032600029A11CA0149F0F9E0E9D119C179B229AB2
:1032700030994398599774969295B594DC93079337
:1032800036926991A190DD8F1D8F628EAB8DF88C87
:103290004A8CA08BFB8A5A8ABE8927899488058824
:1032A0007B87F6867686FA8583851185A3843A84A2
:1032B000D68377831C83C68276822A82E281A081AC
:1032C00063812A81F680C8809E80798059803E8003
:1032D000278016800A800280008002800A80168083
:1032E00027803E80598079809E80C880F6802A8120
:1032F0006381A081E2812A827682C6821C837783E1
:10330000D6833A84A38411858385FA857686F686EA
:103310007B87058894882789BE895A8AFB8AA08B77
:103320004A8CF88CAB8D628E1D8FDD8FA1906991D8
:1033300036920793DC93B594929574965997439877
:103340003099229A179B119C0E9D0F9E149F1CA0D2
:1033500029A138A24CA363A47EA59CA6BDA7E2A880
:103360000AAA36AB65AC97ADCCAE05B040B17FB222
:10337000C0B305B54CB696B7E3B833BA85BBDABC73
:1033800032BE8CBFE9C048C2A9C30DC573C6DBC736
:1033900046C9B2CA21CC92CD04CF79D0EFD167D340
:1033A000E1D45CD6D9D758D9D8DA59DCDCDD61DF75
:1033B000E6E06DE2F4E37DE507E792E81EEAABEBB9
:1033C00038EDC6EE55F0E4F174F305F595F627F8FF
:1033D000B8F94AFBDCFC6EFE00000000FC3300087C
:1033E00000000020CC0000000A2F0008C8340008AC
:1033F000CC000020BC0600001A2F000800000000CE
:1034000000000000000000000F00000000000000AD
:10341000E8030000000000000000000000000000C1
:10342000000000000000000000000000000000009C
:10343000000000000000000000000000000000008C
:10344000000000000000000000000000000000007C
:10345000000000000000000000000000000000006C
:10346000000000000000000000000000000000005C
:10347000000000000000000000000000000000004C
:10348000000000000000000000000000000000003C
:10349000000000000000000000000000000000002C
:1034A000000000000000000000000000000000001C
:1034B00000000000000000000100000010000000FB
:0834C000000000000024F400EC
:04000005080000ED02
:00000001FF
